{
  "address": "0x7AD16452c19971EA064668D419420905fa36026f",
  "abi": [
    {
      "inputs": [
        {
          "internalType": "address",
          "name": "token_",
          "type": "address"
        },
        {
          "internalType": "bytes16",
          "name": "merkleRoot_",
          "type": "bytes16"
        },
        {
          "internalType": "uint256",
          "name": "depth_",
          "type": "uint256"
        }
      ],
      "stateMutability": "nonpayable",
      "type": "constructor"
    },
    {
      "inputs": [],
      "name": "DropAlreadyClaimed",
      "type": "error"
    },
    {
      "inputs": [],
      "name": "FailedCall",
      "type": "error"
    },
    {
      "inputs": [
        {
          "internalType": "uint256",
          "name": "balance",
          "type": "uint256"
        },
        {
          "internalType": "uint256",
          "name": "needed",
          "type": "uint256"
        }
      ],
      "name": "InsufficientBalance",
      "type": "error"
    },
    {
      "inputs": [],
      "name": "InvalidProof",
      "type": "error"
    },
    {
      "inputs": [
        {
          "internalType": "address",
          "name": "owner",
          "type": "address"
        }
      ],
      "name": "OwnableInvalidOwner",
      "type": "error"
    },
    {
      "inputs": [
        {
          "internalType": "address",
          "name": "account",
          "type": "address"
        }
      ],
      "name": "OwnableUnauthorizedAccount",
      "type": "error"
    },
    {
      "inputs": [],
      "name": "SafeTransferFailed",
      "type": "error"
    },
    {
      "anonymous": false,
      "inputs": [
        {
          "indexed": true,
          "internalType": "address",
          "name": "previousOwner",
          "type": "address"
        },
        {
          "indexed": true,
          "internalType": "address",
          "name": "newOwner",
          "type": "address"
        }
      ],
      "name": "OwnershipTransferred",
      "type": "event"
    },
    {
      "inputs": [
        {
          "internalType": "address",
          "name": "receiver",
          "type": "address"
        },
        {
          "internalType": "uint256",
          "name": "amount",
          "type": "uint256"
        },
        {
          "internalType": "bytes",
          "name": "merkleProof",
          "type": "bytes"
        },
        {
          "internalType": "bytes",
          "name": "signature",
          "type": "bytes"
        }
      ],
      "name": "claim",
      "outputs": [],
      "stateMutability": "payable",
      "type": "function"
    },
    {
      "inputs": [],
      "name": "depth",
      "outputs": [
        {
          "internalType": "uint256",
          "name": "",
          "type": "uint256"
        }
      ],
      "stateMutability": "view",
      "type": "function"
    },
    {
      "inputs": [
        {
          "internalType": "uint256",
          "name": "index",
          "type": "uint256"
        }
      ],
      "name": "isClaimed",
      "outputs": [
        {
          "internalType": "bool",
          "name": "",
          "type": "bool"
        }
      ],
      "stateMutability": "view",
      "type": "function"
    },
    {
      "inputs": [],
      "name": "merkleRoot",
      "outputs": [
        {
          "internalType": "bytes16",
          "name": "",
          "type": "bytes16"
        }
      ],
      "stateMutability": "view",
      "type": "function"
    },
    {
      "inputs": [],
      "name": "owner",
      "outputs": [
        {
          "internalType": "address",
          "name": "",
          "type": "address"
        }
      ],
      "stateMutability": "view",
      "type": "function"
    },
    {
      "inputs": [],
      "name": "renounceOwnership",
      "outputs": [],
      "stateMutability": "nonpayable",
      "type": "function"
    },
    {
      "inputs": [
        {
          "internalType": "address",
          "name": "token_",
          "type": "address"
        },
        {
          "internalType": "uint256",
          "name": "amount",
          "type": "uint256"
        }
      ],
      "name": "rescueFunds",
      "outputs": [],
      "stateMutability": "nonpayable",
      "type": "function"
    },
    {
      "inputs": [],
      "name": "token",
      "outputs": [
        {
          "internalType": "address",
          "name": "",
          "type": "address"
        }
      ],
      "stateMutability": "view",
      "type": "function"
    },
    {
      "inputs": [
        {
          "internalType": "address",
          "name": "newOwner",
          "type": "address"
        }
      ],
      "name": "transferOwnership",
      "outputs": [],
      "stateMutability": "nonpayable",
      "type": "function"
    },
    {
      "inputs": [
        {
          "internalType": "bytes",
          "name": "proof",
          "type": "bytes"
        },
        {
          "internalType": "bytes16",
          "name": "root",
          "type": "bytes16"
        },
        {
          "internalType": "bytes16",
          "name": "leaf",
          "type": "bytes16"
        }
      ],
      "name": "verify",
      "outputs": [
        {
          "internalType": "bool",
          "name": "valid",
          "type": "bool"
        },
        {
          "internalType": "uint256",
          "name": "index",
          "type": "uint256"
        }
      ],
      "stateMutability": "view",
      "type": "function"
    },
    {
      "inputs": [
        {
          "internalType": "bytes",
          "name": "proof",
          "type": "bytes"
        },
        {
          "internalType": "bytes16",
          "name": "leaf",
          "type": "bytes16"
        }
      ],
      "name": "verify",
      "outputs": [
        {
          "internalType": "bool",
          "name": "valid",
          "type": "bool"
        },
        {
          "internalType": "uint256",
          "name": "index",
          "type": "uint256"
        }
      ],
      "stateMutability": "view",
      "type": "function"
    },
    {
      "stateMutability": "payable",
      "type": "receive"
    }
  ],
  "transactionHash": "0x94f1031fdd5281480f87a3b2698d0f29cbf844d50b9b7939fa87226a8532e17c",
  "args": [
    "0xc5fecC3a29Fb57B5024eEc8a2239d4621e111CBE",
    "0x36274b18dd7d0ae63dc310446524e3a5",
    "9"
  ],
  "numDeployments": 1,
  "solcInputHash": "69ffb122290781f1ecc0caae24596527",
  "bytecode": "0x60e060405234801561000f575f80fd5b50604051610ed2380380610ed283398101604081905261002e916100cf565b338061005357604051631e4fbdf760e01b81525f600482015260240160405180910390fd5b61005c81610080565b506001600160a01b039092166080526001600160801b03191660a05260c052610126565b5f80546001600160a01b038381166001600160a01b0319831681178455604051919092169283917f8be0079c531659141344cd1fd0a4f28419497f9722a3daafe3b4186f6b6457e09190a35050565b5f805f606084860312156100e1575f80fd5b83516001600160a01b03811681146100f7575f80fd5b60208501519093506001600160801b031981168114610114575f80fd5b80925050604084015190509250925092565b60805160a05160c051610d6761016b5f395f8181610176015261066d01525f818160d70152818161036101526104bd01525f81816102b601526105400152610d675ff3fe6080604052600436106100bb575f3560e01c80638da5cb5b11610071578063b33302c71161004c578063b33302c714610273578063f2fde38b14610286578063fc0c546a146102a5575f80fd5b80638da5cb5b146101db5780638ebb005d146102255780639e34070f14610244575f80fd5b8063631c56ef116100a1578063631c56ef14610165578063715018a6146101a657806378e3214f146101bc575f80fd5b80632eb4a7ab146100c65780633956851b1461012f575f80fd5b366100c257005b5f80fd5b3480156100d1575f80fd5b506100f97f000000000000000000000000000000000000000000000000000000000000000081565b6040517fffffffffffffffffffffffffffffffff0000000000000000000000000000000090911681526020015b60405180910390f35b34801561013a575f80fd5b5061014e610149366004610af2565b6102d8565b604080519215158352602083019190915201610126565b348015610170575f80fd5b506101987f000000000000000000000000000000000000000000000000000000000000000081565b604051908152602001610126565b3480156101b1575f80fd5b506101ba6102f3565b005b3480156101c7575f80fd5b506101ba6101d6366004610b76565b610306565b3480156101e6575f80fd5b505f5473ffffffffffffffffffffffffffffffffffffffff165b60405173ffffffffffffffffffffffffffffffffffffffff9091168152602001610126565b348015610230575f80fd5b5061014e61023f366004610b9e565b610358565b34801561024f575f80fd5b5061026361025e366004610bee565b610392565b6040519015158152602001610126565b6101ba610281366004610c05565b6103d0565b348015610291575f80fd5b506101ba6102a0366004610c89565b6105a2565b3480156102b0575f80fd5b506102007f000000000000000000000000000000000000000000000000000000000000000081565b5f806102e68686868661060a565b9150915094509492505050565b6102fb610693565b6103045f6106e5565b565b61030e610693565b73ffffffffffffffffffffffffffffffffffffffff8216610337576103333382610759565b5050565b61033373ffffffffffffffffffffffffffffffffffffffff83163383610811565b5f8061038685857f00000000000000000000000000000000000000000000000000000000000000008661060a565b91509150935093915050565b5f806103a061010084610ccf565b90505f6103af61010085610ce2565b5f9283526001602081905260409093205492901b9182169091149392505050565b6040517fffffffffffffffffffffffffffffffffffffffff000000000000000000000000606088901b1660208201525f9061045090603401604051602081830303815290604052805190602001207f19457468657265756d205369676e6564204d6573736167653a0a3332000000005f908152601c91909152603c902090565b90505f61045e828585610878565b6040517fffffffffffffffffffffffffffffffffffffffff000000000000000000000000606083901b166020820152603481018990529091505f906054016040516020818303038152906040528051906020012090505f806104e289897f00000000000000000000000000000000000000000000000000000000000000008661060a565b915091508161051d576040517f09bde33900000000000000000000000000000000000000000000000000000000815260040160405180910390fd5b61052681610940565b61056773ffffffffffffffffffffffffffffffffffffffff7f0000000000000000000000000000000000000000000000000000000000000000168c8c610811565b341561058d5761058d73ffffffffffffffffffffffffffffffffffffffff8c1634610759565b6105956109af565b5050505050505050505050565b6105aa610693565b73ffffffffffffffffffffffffffffffffffffffff81166105fe576040517f1e4fbdf70000000000000000000000000000000000000000000000000000000081525f60048201526024015b60405180910390fd5b610607816106e5565b50565b5f808560018682015b8083101561065a5782358087106001811461063957815f52876010528584179550610641565b875f52816010525b505060205f2095508160011b9150601083019250610613565b5050509190921860801c159460109093047f0000000000000000000000000000000000000000000000000000000000000000031b925050565b5f5473ffffffffffffffffffffffffffffffffffffffff163314610304576040517f118cdaa70000000000000000000000000000000000000000000000000000000081523360048201526024016105f5565b5f805473ffffffffffffffffffffffffffffffffffffffff8381167fffffffffffffffffffffffff0000000000000000000000000000000000000000831681178455604051919092169283917f8be0079c531659141344cd1fd0a4f28419497f9722a3daafe3b4186f6b6457e09190a35050565b8047101561079c576040517fcf479181000000000000000000000000000000000000000000000000000000008152476004820152602481018290526044016105f5565b5f808373ffffffffffffffffffffffffffffffffffffffff16836040515f6040518083038185875af1925050503d805f81146107f3576040519150601f19603f3d011682016040523d82523d5f602084013e6107f8565b606091505b50915091508161080b5761080b816109d5565b50505050565b61083d837fa9059cbb000000000000000000000000000000000000000000000000000000008484610a16565b610873576040517ffb7f507900000000000000000000000000000000000000000000000000000000815260040160405180910390fd5b505050565b5f604051826041811461089557604081146108ae575f91506108ef565b60408501355f1a602083015260408560408401376108ef565b60208501358060ff1c601b01602084015260208660408501377f7fffffffffffffffffffffffffffffffffffffffffffffffffffffffffffffff1660608301525b508015610938577f7fffffffffffffffffffffffffffffff5d576e7357a4501ddfe92f46681b20a160608201511015610938578481525f805260205f60808360015afa505f5191505b509392505050565b600881901c5f8181526001602081905260409091205460ff841691821b8117808203610998576040517f1e65ff1f00000000000000000000000000000000000000000000000000000000815260040160405180910390fd5b5f9384526001602052604090932092909255505050565b478015610607576106076109ce6109c861ea6048610cf5565b83610a65565b3290610759565b8051156109e457805160208201fd5b6040517fd6bda27500000000000000000000000000000000000000000000000000000000815260040160405180910390fd5b5f60405184815283600482015282602482015260205f6044835f8a5af19150508015610a5d573d8015610a545760015f5114601f3d11169150610a5b565b5f863b1191505b505b949350505050565b5f8282188284100282185b90505b92915050565b5f8083601f840112610a89575f80fd5b50813567ffffffffffffffff811115610aa0575f80fd5b602083019150836020828501011115610ab7575f80fd5b9250929050565b80357fffffffffffffffffffffffffffffffff0000000000000000000000000000000081168114610aed575f80fd5b919050565b5f805f8060608587031215610b05575f80fd5b843567ffffffffffffffff811115610b1b575f80fd5b610b2787828801610a79565b9095509350610b3a905060208601610abe565b9150610b4860408601610abe565b905092959194509250565b803573ffffffffffffffffffffffffffffffffffffffff81168114610aed575f80fd5b5f8060408385031215610b87575f80fd5b610b9083610b53565b946020939093013593505050565b5f805f60408486031215610bb0575f80fd5b833567ffffffffffffffff811115610bc6575f80fd5b610bd286828701610a79565b9094509250610be5905060208501610abe565b90509250925092565b5f60208284031215610bfe575f80fd5b5035919050565b5f805f805f8060808789031215610c1a575f80fd5b610c2387610b53565b955060208701359450604087013567ffffffffffffffff80821115610c46575f80fd5b610c528a838b01610a79565b90965094506060890135915080821115610c6a575f80fd5b50610c7789828a01610a79565b979a9699509497509295939492505050565b5f60208284031215610c99575f80fd5b610a7082610b53565b7f4e487b71000000000000000000000000000000000000000000000000000000005f52601260045260245ffd5b5f82610cdd57610cdd610ca2565b500490565b5f82610cf057610cf0610ca2565b500690565b8082028115828204841417610a73577f4e487b71000000000000000000000000000000000000000000000000000000005f52601160045260245ffdfea2646970667358221220cfd3f3d02b2ff468bbc12bfce91268656189d029dacf2a8bb2a2efffd36e625364736f6c63430008170033",
  "devdoc": {
    "author": "1inch Network",
    "details": "This contract uses 128-bit (16 bytes) Merkle tree nodes for gas optimization and requires signature verification for claims. Each claim can only be made once, tracked via a bitmap for gas efficiency.",
    "errors": {
      "FailedCall()": [
        {
          "details": "A call to an address target failed. The target may have reverted."
        }
      ],
      "InsufficientBalance(uint256,uint256)": [
        {
          "details": "The ETH balance of the account is not enough to perform the operation."
        }
      ],
      "OwnableInvalidOwner(address)": [
        {
          "details": "The owner is not a valid owner account. (eg. `address(0)`)"
        }
      ],
      "OwnableUnauthorizedAccount(address)": [
        {
          "details": "The caller account is not authorized to perform an operation."
        }
      ]
    },
    "kind": "dev",
    "methods": {
      "claim(address,uint256,bytes,bytes)": {
        "details": "The signature must be from the account that is part of the Merkle tree. Includes gas cashback functionality if ETH is sent with the transaction.",
        "params": {
          "amount": "The amount of tokens to claim",
          "merkleProof": "The Merkle proof verifying the claim (must be a multiple of 16 bytes)",
          "receiver": "The address that will receive the tokens",
          "signature": "The signature from the account authorized in the Merkle tree"
        }
      },
      "constructor": {
        "params": {
          "depth_": "The depth of the Merkle tree",
          "merkleRoot_": "The 128-bit Merkle root of the distribution",
          "token_": "The address of the ERC20 token to be distributed"
        }
      },
      "isClaimed(uint256)": {
        "params": {
          "index": "The index in the Merkle tree to check"
        },
        "returns": {
          "_0": "True if the claim has been made, false otherwise"
        }
      },
      "owner()": {
        "details": "Returns the address of the current owner."
      },
      "renounceOwnership()": {
        "details": "Leaves the contract without owner. It will not be possible to call `onlyOwner` functions. Can only be called by the current owner. NOTE: Renouncing ownership will leave the contract without an owner, thereby disabling any functionality that is only available to the owner."
      },
      "rescueFunds(address,uint256)": {
        "details": "Only callable by the contract owner",
        "params": {
          "amount": "The amount to rescue",
          "token_": "The token address to rescue (use address(0) for ETH)"
        }
      },
      "transferOwnership(address)": {
        "details": "Transfers ownership of the contract to a new account (`newOwner`). Can only be called by the current owner."
      },
      "verify(bytes,bytes16)": {
        "params": {
          "leaf": "The 128-bit leaf node to verify",
          "proof": "The Merkle proof to verify (must be a multiple of 16 bytes)"
        },
        "returns": {
          "index": "The index of the leaf in the Merkle tree",
          "valid": "True if the proof is valid, false otherwise"
        }
      },
      "verify(bytes,bytes16,bytes16)": {
        "params": {
          "leaf": "The 128-bit leaf node to verify",
          "proof": "The Merkle proof to verify (must be a multiple of 16 bytes)",
          "root": "The 128-bit Merkle root to verify against"
        },
        "returns": {
          "index": "The index of the leaf in the Merkle tree",
          "valid": "True if the proof is valid, false otherwise"
        }
      }
    },
    "title": "SignatureMerkleDrop128",
    "version": 1
  },
  "userdoc": {
    "kind": "user",
    "methods": {
      "claim(address,uint256,bytes,bytes)": {
        "notice": "Claims tokens for a receiver using a Merkle proof and signature"
      },
      "constructor": {
        "notice": "Constructs the SignatureMerkleDrop128 contract"
      },
      "depth()": {
        "notice": "The depth of the Merkle tree"
      },
      "isClaimed(uint256)": {
        "notice": "Checks if a claim at a specific index has already been made"
      },
      "merkleRoot()": {
        "notice": "The 128-bit Merkle root for the distribution"
      },
      "rescueFunds(address,uint256)": {
        "notice": "Allows owner to rescue stuck funds (ETH or ERC20 tokens)"
      },
      "token()": {
        "notice": "The ERC20 token being distributed"
      },
      "verify(bytes,bytes16)": {
        "notice": "Verifies a Merkle proof against the contract's merkleRoot"
      },
      "verify(bytes,bytes16,bytes16)": {
        "notice": "Verifies a Merkle proof against a specified root"
      }
    },
    "notice": "A gas-optimized contract for distributing tokens via 128-bit Merkle tree proofs with signature verification",
    "version": 1
  },
  "storageLayout": {
    "storage": [
      {
        "astId": 1109,
        "contract": "contracts/SignatureMerkleDrop128.sol:SignatureMerkleDrop128",
        "label": "_owner",
        "offset": 0,
        "slot": "0",
        "type": "t_address"
      },
      {
        "astId": 6177,
        "contract": "contracts/SignatureMerkleDrop128.sol:SignatureMerkleDrop128",
        "label": "_claimedBitMap",
        "offset": 0,
        "slot": "1",
        "type": "t_mapping(t_uint256,t_uint256)"
      }
    ],
    "types": {
      "t_address": {
        "encoding": "inplace",
        "label": "address",
        "numberOfBytes": "20"
      },
      "t_mapping(t_uint256,t_uint256)": {
        "encoding": "mapping",
        "key": "t_uint256",
        "label": "mapping(uint256 => uint256)",
        "numberOfBytes": "32",
        "value": "t_uint256"
      },
      "t_uint256": {
        "encoding": "inplace",
        "label": "uint256",
        "numberOfBytes": "32"
      }
    }
  }
}