{
  "address": "0xFeE0AEeCEfdB5D4712b997A5Ec9d336E5455e3E2",
  "abi": [
    {
      "inputs": [
        {
          "internalType": "address",
          "name": "token_",
          "type": "address"
        },
        {
          "internalType": "bytes16",
          "name": "merkleRoot_",
          "type": "bytes16"
        },
        {
          "internalType": "uint256",
          "name": "depth_",
          "type": "uint256"
        }
      ],
      "stateMutability": "nonpayable",
      "type": "constructor"
    },
    {
      "inputs": [
        {
          "internalType": "address",
          "name": "account",
          "type": "address"
        }
      ],
      "name": "AddressInsufficientBalance",
      "type": "error"
    },
    {
      "inputs": [],
      "name": "DropAlreadyClaimed",
      "type": "error"
    },
    {
      "inputs": [],
      "name": "FailedInnerCall",
      "type": "error"
    },
    {
      "inputs": [],
      "name": "InvalidProof",
      "type": "error"
    },
    {
      "inputs": [
        {
          "internalType": "address",
          "name": "owner",
          "type": "address"
        }
      ],
      "name": "OwnableInvalidOwner",
      "type": "error"
    },
    {
      "inputs": [
        {
          "internalType": "address",
          "name": "account",
          "type": "address"
        }
      ],
      "name": "OwnableUnauthorizedAccount",
      "type": "error"
    },
    {
      "inputs": [],
      "name": "SafeTransferFailed",
      "type": "error"
    },
    {
      "anonymous": false,
      "inputs": [
        {
          "indexed": true,
          "internalType": "address",
          "name": "previousOwner",
          "type": "address"
        },
        {
          "indexed": true,
          "internalType": "address",
          "name": "newOwner",
          "type": "address"
        }
      ],
      "name": "OwnershipTransferred",
      "type": "event"
    },
    {
      "inputs": [
        {
          "internalType": "address",
          "name": "receiver",
          "type": "address"
        },
        {
          "internalType": "uint256",
          "name": "amount",
          "type": "uint256"
        },
        {
          "internalType": "bytes",
          "name": "merkleProof",
          "type": "bytes"
        },
        {
          "internalType": "bytes",
          "name": "signature",
          "type": "bytes"
        }
      ],
      "name": "claim",
      "outputs": [],
      "stateMutability": "nonpayable",
      "type": "function"
    },
    {
      "inputs": [],
      "name": "depth",
      "outputs": [
        {
          "internalType": "uint256",
          "name": "",
          "type": "uint256"
        }
      ],
      "stateMutability": "view",
      "type": "function"
    },
    {
      "inputs": [
        {
          "internalType": "uint256",
          "name": "index",
          "type": "uint256"
        }
      ],
      "name": "isClaimed",
      "outputs": [
        {
          "internalType": "bool",
          "name": "",
          "type": "bool"
        }
      ],
      "stateMutability": "view",
      "type": "function"
    },
    {
      "inputs": [],
      "name": "merkleRoot",
      "outputs": [
        {
          "internalType": "bytes16",
          "name": "",
          "type": "bytes16"
        }
      ],
      "stateMutability": "view",
      "type": "function"
    },
    {
      "inputs": [],
      "name": "owner",
      "outputs": [
        {
          "internalType": "address",
          "name": "",
          "type": "address"
        }
      ],
      "stateMutability": "view",
      "type": "function"
    },
    {
      "inputs": [],
      "name": "renounceOwnership",
      "outputs": [],
      "stateMutability": "nonpayable",
      "type": "function"
    },
    {
      "inputs": [
        {
          "internalType": "address",
          "name": "token_",
          "type": "address"
        },
        {
          "internalType": "uint256",
          "name": "amount",
          "type": "uint256"
        }
      ],
      "name": "rescueFunds",
      "outputs": [],
      "stateMutability": "nonpayable",
      "type": "function"
    },
    {
      "inputs": [],
      "name": "token",
      "outputs": [
        {
          "internalType": "address",
          "name": "",
          "type": "address"
        }
      ],
      "stateMutability": "view",
      "type": "function"
    },
    {
      "inputs": [
        {
          "internalType": "address",
          "name": "newOwner",
          "type": "address"
        }
      ],
      "name": "transferOwnership",
      "outputs": [],
      "stateMutability": "nonpayable",
      "type": "function"
    },
    {
      "inputs": [
        {
          "internalType": "bytes",
          "name": "proof",
          "type": "bytes"
        },
        {
          "internalType": "bytes16",
          "name": "root",
          "type": "bytes16"
        },
        {
          "internalType": "bytes16",
          "name": "leaf",
          "type": "bytes16"
        }
      ],
      "name": "verify",
      "outputs": [
        {
          "internalType": "bool",
          "name": "valid",
          "type": "bool"
        },
        {
          "internalType": "uint256",
          "name": "index",
          "type": "uint256"
        }
      ],
      "stateMutability": "view",
      "type": "function"
    },
    {
      "inputs": [
        {
          "internalType": "bytes",
          "name": "proof",
          "type": "bytes"
        },
        {
          "internalType": "bytes16",
          "name": "leaf",
          "type": "bytes16"
        }
      ],
      "name": "verify",
      "outputs": [
        {
          "internalType": "bool",
          "name": "valid",
          "type": "bool"
        },
        {
          "internalType": "uint256",
          "name": "index",
          "type": "uint256"
        }
      ],
      "stateMutability": "view",
      "type": "function"
    },
    {
      "stateMutability": "payable",
      "type": "receive"
    }
  ],
  "transactionHash": "0x1ed215f5ae856445a1b8fbbb9a08338c3ab77e3ba26eaa8d1d336e4c79ea691a",
  "args": [
    "0xc5fecC3a29Fb57B5024eEc8a2239d4621e111CBE",
    "0xeb42483aeaa33fee2969dfd57ccb49c6",
    "8"
  ],
  "numDeployments": 1,
  "solcInputHash": "58c7166f1db63fd9944cc1372b0b579b",
  "bytecode": "0x60e060405234801561000f575f80fd5b50604051610e96380380610e9683398101604081905261002e916100cf565b338061005357604051631e4fbdf760e01b81525f600482015260240160405180910390fd5b61005c81610080565b506001600160a01b039092166080526001600160801b03191660a05260c052610126565b5f80546001600160a01b038381166001600160a01b0319831681178455604051919092169283917f8be0079c531659141344cd1fd0a4f28419497f9722a3daafe3b4186f6b6457e09190a35050565b5f805f606084860312156100e1575f80fd5b83516001600160a01b03811681146100f7575f80fd5b60208501519093506001600160801b031981168114610114575f80fd5b80925050604084015190509250925092565b60805160a05160c051610d2b61016b5f395f8181610176015261065301525f818160d70152818161036d01526104c901525f81816102c2015261054c0152610d2b5ff3fe6080604052600436106100bb575f3560e01c80638da5cb5b11610071578063b33302c71161004c578063b33302c714610273578063f2fde38b14610292578063fc0c546a146102b1575f80fd5b80638da5cb5b146101db5780638ebb005d146102255780639e34070f14610244575f80fd5b8063631c56ef116100a1578063631c56ef14610165578063715018a6146101a657806378e3214f146101bc575f80fd5b80632eb4a7ab146100c65780633956851b1461012f575f80fd5b366100c257005b5f80fd5b3480156100d1575f80fd5b506100f97f000000000000000000000000000000000000000000000000000000000000000081565b6040517fffffffffffffffffffffffffffffffff0000000000000000000000000000000090911681526020015b60405180910390f35b34801561013a575f80fd5b5061014e610149366004610ab6565b6102e4565b604080519215158352602083019190915201610126565b348015610170575f80fd5b506101987f000000000000000000000000000000000000000000000000000000000000000081565b604051908152602001610126565b3480156101b1575f80fd5b506101ba6102ff565b005b3480156101c7575f80fd5b506101ba6101d6366004610b3a565b610312565b3480156101e6575f80fd5b505f5473ffffffffffffffffffffffffffffffffffffffff165b60405173ffffffffffffffffffffffffffffffffffffffff9091168152602001610126565b348015610230575f80fd5b5061014e61023f366004610b62565b610364565b34801561024f575f80fd5b5061026361025e366004610bb2565b61039e565b6040519015158152602001610126565b34801561027e575f80fd5b506101ba61028d366004610bc9565b6103dc565b34801561029d575f80fd5b506101ba6102ac366004610c4d565b610588565b3480156102bc575f80fd5b506102007f000000000000000000000000000000000000000000000000000000000000000081565b5f806102f2868686866105f0565b9150915094509492505050565b610307610679565b6103105f6106cb565b565b61031a610679565b73ffffffffffffffffffffffffffffffffffffffff82166103435761033f338261073f565b5050565b61033f73ffffffffffffffffffffffffffffffffffffffff83163383610816565b5f8061039285857f0000000000000000000000000000000000000000000000000000000000000000866105f0565b91509150935093915050565b5f806103ac61010084610c93565b90505f6103bb61010085610ca6565b5f9283526001602081905260409093205492901b9182169091149392505050565b6040517fffffffffffffffffffffffffffffffffffffffff000000000000000000000000606088901b1660208201525f9061045c90603401604051602081830303815290604052805190602001207f19457468657265756d205369676e6564204d6573736167653a0a3332000000005f908152601c91909152603c902090565b90505f61046a828585610878565b6040517fffffffffffffffffffffffffffffffffffffffff000000000000000000000000606083901b166020820152603481018990529091505f906054016040516020818303038152906040528051906020012090505f806104ee89897f0000000000000000000000000000000000000000000000000000000000000000866105f0565b9150915081610529576040517f09bde33900000000000000000000000000000000000000000000000000000000815260040160405180910390fd5b61053281610940565b61057373ffffffffffffffffffffffffffffffffffffffff7f0000000000000000000000000000000000000000000000000000000000000000168c8c610816565b61057b6109af565b5050505050505050505050565b610590610679565b73ffffffffffffffffffffffffffffffffffffffff81166105e4576040517f1e4fbdf70000000000000000000000000000000000000000000000000000000081525f60048201526024015b60405180910390fd5b6105ed816106cb565b50565b5f808560018682015b808310156106405782358087106001811461061f57815f52876010528584179550610627565b875f52816010525b505060205f2095508160011b91506010830192506105f9565b5050509190921860801c159460109093047f0000000000000000000000000000000000000000000000000000000000000000031b925050565b5f5473ffffffffffffffffffffffffffffffffffffffff163314610310576040517f118cdaa70000000000000000000000000000000000000000000000000000000081523360048201526024016105db565b5f805473ffffffffffffffffffffffffffffffffffffffff8381167fffffffffffffffffffffffff0000000000000000000000000000000000000000831681178455604051919092169283917f8be0079c531659141344cd1fd0a4f28419497f9722a3daafe3b4186f6b6457e09190a35050565b8047101561077b576040517fcd7860590000000000000000000000000000000000000000000000000000000081523060048201526024016105db565b5f8273ffffffffffffffffffffffffffffffffffffffff16826040515f6040518083038185875af1925050503d805f81146107d1576040519150601f19603f3d011682016040523d82523d5f602084013e6107d6565b606091505b5050905080610811576040517f1425ea4200000000000000000000000000000000000000000000000000000000815260040160405180910390fd5b505050565b610842837fa9059cbb0000000000000000000000000000000000000000000000000000000084846109d5565b610811576040517ffb7f507900000000000000000000000000000000000000000000000000000000815260040160405180910390fd5b5f604051826041811461089557604081146108ae575f91506108ef565b60408501355f1a602083015260408560408401376108ef565b60208501358060ff1c601b01602084015260208660408501377f7fffffffffffffffffffffffffffffffffffffffffffffffffffffffffffffff1660608301525b508015610938577f7fffffffffffffffffffffffffffffff5d576e7357a4501ddfe92f46681b20a160608201511015610938578481525f805260205f60808360015afa505f5191505b509392505050565b600881901c5f8181526001602081905260409091205460ff841691821b8117808203610998576040517f1e65ff1f00000000000000000000000000000000000000000000000000000000815260040160405180910390fd5b5f9384526001602052604090932092909255505050565b4780156105ed576105ed6109ce6109c861ea6048610cb9565b83610a24565b329061073f565b5f60405184815283600482015282602482015260205f6044835f8a5af19150508015610a1c573d8015610a135760015f5114601f3d11169150610a1a565b5f863b1191505b505b949350505050565b5f818310610a325781610a34565b825b90505b92915050565b5f8083601f840112610a4d575f80fd5b50813567ffffffffffffffff811115610a64575f80fd5b602083019150836020828501011115610a7b575f80fd5b9250929050565b80357fffffffffffffffffffffffffffffffff0000000000000000000000000000000081168114610ab1575f80fd5b919050565b5f805f8060608587031215610ac9575f80fd5b843567ffffffffffffffff811115610adf575f80fd5b610aeb87828801610a3d565b9095509350610afe905060208601610a82565b9150610b0c60408601610a82565b905092959194509250565b803573ffffffffffffffffffffffffffffffffffffffff81168114610ab1575f80fd5b5f8060408385031215610b4b575f80fd5b610b5483610b17565b946020939093013593505050565b5f805f60408486031215610b74575f80fd5b833567ffffffffffffffff811115610b8a575f80fd5b610b9686828701610a3d565b9094509250610ba9905060208501610a82565b90509250925092565b5f60208284031215610bc2575f80fd5b5035919050565b5f805f805f8060808789031215610bde575f80fd5b610be787610b17565b955060208701359450604087013567ffffffffffffffff80821115610c0a575f80fd5b610c168a838b01610a3d565b90965094506060890135915080821115610c2e575f80fd5b50610c3b89828a01610a3d565b979a9699509497509295939492505050565b5f60208284031215610c5d575f80fd5b610a3482610b17565b7f4e487b71000000000000000000000000000000000000000000000000000000005f52601260045260245ffd5b5f82610ca157610ca1610c66565b500490565b5f82610cb457610cb4610c66565b500690565b8082028115828204841417610a37577f4e487b71000000000000000000000000000000000000000000000000000000005f52601160045260245ffdfea2646970667358221220bcfb7109300f22437a7f2522f92947c9c5628d89f69b694516d9c47bbfc0854f64736f6c63430008170033",
  "devdoc": {
    "errors": {
      "AddressInsufficientBalance(address)": [
        {
          "details": "The ETH balance of the account is not enough to perform the operation."
        }
      ],
      "FailedInnerCall()": [
        {
          "details": "A call to an address target failed. The target may have reverted."
        }
      ],
      "OwnableInvalidOwner(address)": [
        {
          "details": "The owner is not a valid owner account. (eg. `address(0)`)"
        }
      ],
      "OwnableUnauthorizedAccount(address)": [
        {
          "details": "The caller account is not authorized to perform an operation."
        }
      ]
    },
    "kind": "dev",
    "methods": {
      "owner()": {
        "details": "Returns the address of the current owner."
      },
      "renounceOwnership()": {
        "details": "Leaves the contract without owner. It will not be possible to call `onlyOwner` functions. Can only be called by the current owner. NOTE: Renouncing ownership will leave the contract without an owner, thereby disabling any functionality that is only available to the owner."
      },
      "transferOwnership(address)": {
        "details": "Transfers ownership of the contract to a new account (`newOwner`). Can only be called by the current owner."
      }
    },
    "version": 1
  },
  "userdoc": {
    "kind": "user",
    "methods": {},
    "version": 1
  },
  "storageLayout": {
    "storage": [
      {
        "astId": 1085,
        "contract": "contracts/SignatureMerkleDrop128.sol:SignatureMerkleDrop128",
        "label": "_owner",
        "offset": 0,
        "slot": "0",
        "type": "t_address"
      },
      {
        "astId": 3719,
        "contract": "contracts/SignatureMerkleDrop128.sol:SignatureMerkleDrop128",
        "label": "_claimedBitMap",
        "offset": 0,
        "slot": "1",
        "type": "t_mapping(t_uint256,t_uint256)"
      }
    ],
    "types": {
      "t_address": {
        "encoding": "inplace",
        "label": "address",
        "numberOfBytes": "20"
      },
      "t_mapping(t_uint256,t_uint256)": {
        "encoding": "mapping",
        "key": "t_uint256",
        "label": "mapping(uint256 => uint256)",
        "numberOfBytes": "32",
        "value": "t_uint256"
      },
      "t_uint256": {
        "encoding": "inplace",
        "label": "uint256",
        "numberOfBytes": "32"
      }
    }
  }
}