{
  "address": "0xE45007175249c645F28A8fFF3eAeeCeAAda550cF",
  "abi": [
    {
      "inputs": [
        {
          "internalType": "address",
          "name": "token_",
          "type": "address"
        },
        {
          "internalType": "bytes16",
          "name": "merkleRoot_",
          "type": "bytes16"
        },
        {
          "internalType": "uint256",
          "name": "depth_",
          "type": "uint256"
        }
      ],
      "stateMutability": "nonpayable",
      "type": "constructor"
    },
    {
      "inputs": [],
      "name": "SafeTransferFailed",
      "type": "error"
    },
    {
      "anonymous": false,
      "inputs": [
        {
          "indexed": true,
          "internalType": "address",
          "name": "previousOwner",
          "type": "address"
        },
        {
          "indexed": true,
          "internalType": "address",
          "name": "newOwner",
          "type": "address"
        }
      ],
      "name": "OwnershipTransferred",
      "type": "event"
    },
    {
      "inputs": [
        {
          "internalType": "address",
          "name": "receiver",
          "type": "address"
        },
        {
          "internalType": "uint256",
          "name": "amount",
          "type": "uint256"
        },
        {
          "internalType": "bytes",
          "name": "merkleProof",
          "type": "bytes"
        },
        {
          "internalType": "bytes",
          "name": "signature",
          "type": "bytes"
        }
      ],
      "name": "claim",
      "outputs": [],
      "stateMutability": "nonpayable",
      "type": "function"
    },
    {
      "inputs": [],
      "name": "depth",
      "outputs": [
        {
          "internalType": "uint256",
          "name": "",
          "type": "uint256"
        }
      ],
      "stateMutability": "view",
      "type": "function"
    },
    {
      "inputs": [
        {
          "internalType": "uint256",
          "name": "index",
          "type": "uint256"
        }
      ],
      "name": "isClaimed",
      "outputs": [
        {
          "internalType": "bool",
          "name": "",
          "type": "bool"
        }
      ],
      "stateMutability": "view",
      "type": "function"
    },
    {
      "inputs": [],
      "name": "merkleRoot",
      "outputs": [
        {
          "internalType": "bytes16",
          "name": "",
          "type": "bytes16"
        }
      ],
      "stateMutability": "view",
      "type": "function"
    },
    {
      "inputs": [],
      "name": "owner",
      "outputs": [
        {
          "internalType": "address",
          "name": "",
          "type": "address"
        }
      ],
      "stateMutability": "view",
      "type": "function"
    },
    {
      "inputs": [],
      "name": "renounceOwnership",
      "outputs": [],
      "stateMutability": "nonpayable",
      "type": "function"
    },
    {
      "inputs": [
        {
          "internalType": "address",
          "name": "token_",
          "type": "address"
        },
        {
          "internalType": "uint256",
          "name": "amount",
          "type": "uint256"
        }
      ],
      "name": "rescueFunds",
      "outputs": [],
      "stateMutability": "nonpayable",
      "type": "function"
    },
    {
      "inputs": [],
      "name": "token",
      "outputs": [
        {
          "internalType": "address",
          "name": "",
          "type": "address"
        }
      ],
      "stateMutability": "view",
      "type": "function"
    },
    {
      "inputs": [
        {
          "internalType": "address",
          "name": "newOwner",
          "type": "address"
        }
      ],
      "name": "transferOwnership",
      "outputs": [],
      "stateMutability": "nonpayable",
      "type": "function"
    },
    {
      "inputs": [
        {
          "internalType": "bytes",
          "name": "proof",
          "type": "bytes"
        },
        {
          "internalType": "bytes16",
          "name": "root",
          "type": "bytes16"
        },
        {
          "internalType": "bytes16",
          "name": "leaf",
          "type": "bytes16"
        }
      ],
      "name": "verify",
      "outputs": [
        {
          "internalType": "bool",
          "name": "valid",
          "type": "bool"
        },
        {
          "internalType": "uint256",
          "name": "index",
          "type": "uint256"
        }
      ],
      "stateMutability": "view",
      "type": "function"
    },
    {
      "stateMutability": "payable",
      "type": "receive"
    }
  ],
  "transactionHash": "0x492347eeefe5a0435f784b27b0d5d262ab2bc17b1cf71097543fc1f9a9086011",
  "args": [
    "0x111111111117dC0aa78b770fA6A738034120C302",
    "0x00ca8da54ca7060fe39acf6fd7cb9b8d",
    8
  ],
  "numDeployments": 1,
  "solcInputHash": "484534af9d63cce18398e440ad4ee7d1",
  "bytecode": "0x60e060405234801561001057600080fd5b506040516113ff3803806113ff8339818101604052606081101561003357600080fd5b508051602082015160409092015190919061004d33610070565b6001600160a01b039092166080526001600160801b03191660a05260c0526100c0565b600080546001600160a01b038381166001600160a01b0319831681178455604051919092169283917f8be0079c531659141344cd1fd0a4f28419497f9722a3daafe3b4186f6b6457e09190a35050565b60805160a05160c0516112fc610103600039600081816101fe01526109f201526000818160d30152610767015260008181610460015261081f01526112fc6000f3fe6080604052600436106100b55760003560e01c80638da5cb5b11610069578063b33302c71161004e578063b33302c71461031d578063f2fde38b1461040e578063fc0c546a1461044e57600080fd5b80638da5cb5b1461028f5780639e34070f146102df57600080fd5b8063631c56ef1161009a578063631c56ef146101ec578063715018a61461023257806378e3214f1461024957600080fd5b80632eb4a7ab146100c15780633956851b1461012a57600080fd5b366100bc57005b600080fd5b3480156100cd57600080fd5b506100f57f000000000000000000000000000000000000000000000000000000000000000081565b604080517fffffffffffffffffffffffffffffffff000000000000000000000000000000009092168252519081900360200190f35b34801561013657600080fd5b506101d16004803603606081101561014d57600080fd5b81019060208101813564010000000081111561016857600080fd5b82018360208201111561017a57600080fd5b8035906020019184600183028401116401000000008311171561019c57600080fd5b91935091507fffffffffffffffffffffffffffffffff0000000000000000000000000000000081358116916020013516610482565b60408051921515835260208301919091528051918290030190f35b3480156101f857600080fd5b506102207f000000000000000000000000000000000000000000000000000000000000000081565b60408051918252519081900360200190f35b34801561023e57600080fd5b5061024761049f565b005b34801561025557600080fd5b506102476004803603604081101561026c57600080fd5b5073ffffffffffffffffffffffffffffffffffffffff8135169060200135610531565b34801561029b57600080fd5b5060005473ffffffffffffffffffffffffffffffffffffffff165b6040805173ffffffffffffffffffffffffffffffffffffffff9092168252519081900360200190f35b3480156102eb57600080fd5b506103096004803603602081101561030257600080fd5b50356105fc565b604080519115158252519081900360200190f35b34801561032957600080fd5b506102476004803603608081101561034057600080fd5b73ffffffffffffffffffffffffffffffffffffffff8235169160208101359181019060608101604082013564010000000081111561037d57600080fd5b82018360208201111561038f57600080fd5b803590602001918460018302840111640100000000831117156103b157600080fd5b9193909290916020810190356401000000008111156103cf57600080fd5b8201836020820111156103e157600080fd5b8035906020019184600183028401116401000000008311171561040357600080fd5b50909250905061063d565b34801561041a57600080fd5b506102476004803603602081101561043157600080fd5b503573ffffffffffffffffffffffffffffffffffffffff1661085b565b34801561045a57600080fd5b506102b67f000000000000000000000000000000000000000000000000000000000000000081565b6000806104918686868661098b565b915091505b94509492505050565b60005473ffffffffffffffffffffffffffffffffffffffff163314610525576040517f08c379a000000000000000000000000000000000000000000000000000000000815260206004820181905260248201527f4f776e61626c653a2063616c6c6572206973206e6f7420746865206f776e657260448201526064015b60405180910390fd5b61052f6000610a18565b565b60005473ffffffffffffffffffffffffffffffffffffffff1633146105b2576040517f08c379a000000000000000000000000000000000000000000000000000000000815260206004820181905260248201527f4f776e61626c653a2063616c6c6572206973206e6f7420746865206f776e6572604482015260640161051c565b73ffffffffffffffffffffffffffffffffffffffff82166105db576105d73382610a8d565b5050565b6105d773ffffffffffffffffffffffffffffffffffffffff83163383610bec565b60008061060b6101008461121a565b9050600061061b6101008561122e565b60009283526001602081905260409093205492901b9182169091149392505050565b604080517fffffffffffffffffffffffffffffffffffffffff000000000000000000000000606089901b16602080830191909152825180830360140181526034830184528051908201207f19457468657265756d205369676e6564204d6573736167653a0a33320000000060548401526070808401919091528351808403909101815260909092019092528051910120600061070f8285858080601f016020809104026020016040519081016040528093929190818152602001838380828437600092019190915250610c4e92505050565b905060008188604051602001808373ffffffffffffffffffffffffffffffffffffffff1660601b81526014018281526020019250505060405160208183030381529060405280519060200120905060008061078c89897f00000000000000000000000000000000000000000000000000000000000000008661098b565b91509150816107fc57604080517f08c379a000000000000000000000000000000000000000000000000000000000815260206004820152601160248201527f4d443a20496e76616c69642070726f6f66000000000000000000000000000000604482015290519081900360640190fd5b61080581610c72565b61084673ffffffffffffffffffffffffffffffffffffffff7f0000000000000000000000000000000000000000000000000000000000000000168c8c610bec565b61084e610d18565b5050505050505050505050565b60005473ffffffffffffffffffffffffffffffffffffffff1633146108dc576040517f08c379a000000000000000000000000000000000000000000000000000000000815260206004820181905260248201527f4f776e61626c653a2063616c6c6572206973206e6f7420746865206f776e6572604482015260640161051c565b73ffffffffffffffffffffffffffffffffffffffff811661097f576040517f08c379a000000000000000000000000000000000000000000000000000000000815260206004820152602660248201527f4f776e61626c653a206e6577206f776e657220697320746865207a65726f206160448201527f6464726573730000000000000000000000000000000000000000000000000000606482015260840161051c565b61098881610a18565b50565b6000808560018682015b808310156109df578235808710600181146109bc57816000528760105285841795506109c5565b87600052816010525b5050602060002095508160011b9150601083019250610995565b5050509190921860801c159460109093047f0000000000000000000000000000000000000000000000000000000000000000031b925050565b6000805473ffffffffffffffffffffffffffffffffffffffff8381167fffffffffffffffffffffffff0000000000000000000000000000000000000000831681178455604051919092169283917f8be0079c531659141344cd1fd0a4f28419497f9722a3daafe3b4186f6b6457e09190a35050565b80471015610af7576040517f08c379a000000000000000000000000000000000000000000000000000000000815260206004820152601d60248201527f416464726573733a20696e73756666696369656e742062616c616e6365000000604482015260640161051c565b60008273ffffffffffffffffffffffffffffffffffffffff168260405160006040518083038185875af1925050503d8060008114610b51576040519150601f19603f3d011682016040523d82523d6000602084013e610b56565b606091505b5050905080610be7576040517f08c379a000000000000000000000000000000000000000000000000000000000815260206004820152603a60248201527f416464726573733a20756e61626c6520746f2073656e642076616c75652c207260448201527f6563697069656e74206d61792068617665207265766572746564000000000000606482015260840161051c565b505050565b610c18837fa9059cbb000000000000000000000000000000000000000000000000000000008484610d3e565b610be7576040517ffb7f507900000000000000000000000000000000000000000000000000000000815260040160405180910390fd5b6000806000610c5d8585610d7b565b91509150610c6a81610de9565b509392505050565b600881901c60008181526001602081905260409091205460ff841691821b8117808203610d0057604080517f08c379a000000000000000000000000000000000000000000000000000000000815260206004820152601860248201527f4d443a2044726f7020616c726561647920636c61696d65640000000000000000604482015290519081900360640190fd5b60009384526001602052604090932092909255505050565b47801561098857610988610d37610d3161ea6048611242565b8361103d565b3290610a8d565b60006040518481528360048201528260248201526020600060448360008a5af19050600160005114601f3d11163d15178116915050949350505050565b6000808251604103610db15760208301516040840151606085015160001a610da587828585611055565b94509450505050610de2565b8251604003610dda5760208301516040840151610dcf86838361116a565b935093505050610de2565b506000905060025b9250929050565b6000816004811115610dfd57610dfd61127f565b03610e055750565b6001816004811115610e1957610e1961127f565b03610e80576040517f08c379a000000000000000000000000000000000000000000000000000000000815260206004820152601860248201527f45434453413a20696e76616c6964207369676e61747572650000000000000000604482015260640161051c565b6002816004811115610e9457610e9461127f565b03610efb576040517f08c379a000000000000000000000000000000000000000000000000000000000815260206004820152601f60248201527f45434453413a20696e76616c6964207369676e6174757265206c656e67746800604482015260640161051c565b6003816004811115610f0f57610f0f61127f565b03610f9c576040517f08c379a000000000000000000000000000000000000000000000000000000000815260206004820152602260248201527f45434453413a20696e76616c6964207369676e6174757265202773272076616c60448201527f7565000000000000000000000000000000000000000000000000000000000000606482015260840161051c565b6004816004811115610fb057610fb061127f565b03610988576040517f08c379a000000000000000000000000000000000000000000000000000000000815260206004820152602260248201527f45434453413a20696e76616c6964207369676e6174757265202776272076616c60448201527f7565000000000000000000000000000000000000000000000000000000000000606482015260840161051c565b600081831061104c578161104e565b825b9392505050565b6000807f7fffffffffffffffffffffffffffffff5d576e7357a4501ddfe92f46681b20a083111561108c5750600090506003610496565b8460ff16601b141580156110a457508460ff16601c14155b156110b55750600090506004610496565b6040805160008082526020820180845289905260ff881692820192909252606081018690526080810185905260019060a0016020604051602081039080840390855afa158015611109573d6000803e3d6000fd5b50506040517fffffffffffffffffffffffffffffffffffffffffffffffffffffffffffffffe0015191505073ffffffffffffffffffffffffffffffffffffffff811661115d57600060019250925050610496565b9660009650945050505050565b6000807f7fffffffffffffffffffffffffffffffffffffffffffffffffffffffffffffff8316816111a060ff86901c601b6112ae565b90506111ae87828885611055565b935093505050935093915050565b7f4e487b7100000000000000000000000000000000000000000000000000000000600052601260045260246000fd5b7f4e487b7100000000000000000000000000000000000000000000000000000000600052601160045260246000fd5b600082611229576112296111bc565b500490565b60008261123d5761123d6111bc565b500690565b6000817fffffffffffffffffffffffffffffffffffffffffffffffffffffffffffffffff048311821515161561127a5761127a6111eb565b500290565b7f4e487b7100000000000000000000000000000000000000000000000000000000600052602160045260246000fd5b600082198211156112c1576112c16111eb565b50019056fea2646970667358221220c44a73abc44df5b9cad787f1dafd04474cb1a3468f746bbbaa6c217fb4b892f664736f6c634300080f0033",
  "devdoc": {
    "kind": "dev",
    "methods": {
      "owner()": {
        "details": "Returns the address of the current owner."
      },
      "renounceOwnership()": {
        "details": "Leaves the contract without owner. It will not be possible to call `onlyOwner` functions anymore. Can only be called by the current owner. NOTE: Renouncing ownership will leave the contract without an owner, thereby removing any functionality that is only available to the owner."
      },
      "transferOwnership(address)": {
        "details": "Transfers ownership of the contract to a new account (`newOwner`). Can only be called by the current owner."
      }
    },
    "version": 1
  },
  "userdoc": {
    "kind": "user",
    "methods": {},
    "version": 1
  },
  "storageLayout": {
    "storage": [
      {
        "astId": 331,
        "contract": "contracts/SignatureMerkleDrop128.sol:SignatureMerkleDrop128",
        "label": "_owner",
        "offset": 0,
        "slot": "0",
        "type": "t_address"
      },
      {
        "astId": 2498,
        "contract": "contracts/SignatureMerkleDrop128.sol:SignatureMerkleDrop128",
        "label": "_claimedBitMap",
        "offset": 0,
        "slot": "1",
        "type": "t_mapping(t_uint256,t_uint256)"
      }
    ],
    "types": {
      "t_address": {
        "encoding": "inplace",
        "label": "address",
        "numberOfBytes": "20"
      },
      "t_mapping(t_uint256,t_uint256)": {
        "encoding": "mapping",
        "key": "t_uint256",
        "label": "mapping(uint256 => uint256)",
        "numberOfBytes": "32",
        "value": "t_uint256"
      },
      "t_uint256": {
        "encoding": "inplace",
        "label": "uint256",
        "numberOfBytes": "32"
      }
    }
  }
}