{
  "address": "0xaff2C0E696cc4e6970A57c94dff29f8bbDAeAd34",
  "abi": [
    {
      "inputs": [
        {
          "internalType": "address",
          "name": "token_",
          "type": "address"
        },
        {
          "internalType": "bytes16",
          "name": "merkleRoot_",
          "type": "bytes16"
        },
        {
          "internalType": "uint256",
          "name": "depth_",
          "type": "uint256"
        }
      ],
      "stateMutability": "nonpayable",
      "type": "constructor"
    },
    {
      "inputs": [],
      "name": "SafeTransferFailed",
      "type": "error"
    },
    {
      "anonymous": false,
      "inputs": [
        {
          "indexed": true,
          "internalType": "address",
          "name": "previousOwner",
          "type": "address"
        },
        {
          "indexed": true,
          "internalType": "address",
          "name": "newOwner",
          "type": "address"
        }
      ],
      "name": "OwnershipTransferred",
      "type": "event"
    },
    {
      "inputs": [
        {
          "internalType": "address",
          "name": "receiver",
          "type": "address"
        },
        {
          "internalType": "uint256",
          "name": "amount",
          "type": "uint256"
        },
        {
          "internalType": "bytes",
          "name": "merkleProof",
          "type": "bytes"
        },
        {
          "internalType": "bytes",
          "name": "signature",
          "type": "bytes"
        }
      ],
      "name": "claim",
      "outputs": [],
      "stateMutability": "nonpayable",
      "type": "function"
    },
    {
      "inputs": [],
      "name": "depth",
      "outputs": [
        {
          "internalType": "uint256",
          "name": "",
          "type": "uint256"
        }
      ],
      "stateMutability": "view",
      "type": "function"
    },
    {
      "inputs": [
        {
          "internalType": "uint256",
          "name": "index",
          "type": "uint256"
        }
      ],
      "name": "isClaimed",
      "outputs": [
        {
          "internalType": "bool",
          "name": "",
          "type": "bool"
        }
      ],
      "stateMutability": "view",
      "type": "function"
    },
    {
      "inputs": [],
      "name": "merkleRoot",
      "outputs": [
        {
          "internalType": "bytes16",
          "name": "",
          "type": "bytes16"
        }
      ],
      "stateMutability": "view",
      "type": "function"
    },
    {
      "inputs": [],
      "name": "owner",
      "outputs": [
        {
          "internalType": "address",
          "name": "",
          "type": "address"
        }
      ],
      "stateMutability": "view",
      "type": "function"
    },
    {
      "inputs": [],
      "name": "renounceOwnership",
      "outputs": [],
      "stateMutability": "nonpayable",
      "type": "function"
    },
    {
      "inputs": [
        {
          "internalType": "address",
          "name": "token_",
          "type": "address"
        },
        {
          "internalType": "uint256",
          "name": "amount",
          "type": "uint256"
        }
      ],
      "name": "rescueFunds",
      "outputs": [],
      "stateMutability": "nonpayable",
      "type": "function"
    },
    {
      "inputs": [],
      "name": "token",
      "outputs": [
        {
          "internalType": "address",
          "name": "",
          "type": "address"
        }
      ],
      "stateMutability": "view",
      "type": "function"
    },
    {
      "inputs": [
        {
          "internalType": "address",
          "name": "newOwner",
          "type": "address"
        }
      ],
      "name": "transferOwnership",
      "outputs": [],
      "stateMutability": "nonpayable",
      "type": "function"
    },
    {
      "inputs": [
        {
          "internalType": "bytes",
          "name": "proof",
          "type": "bytes"
        },
        {
          "internalType": "bytes16",
          "name": "root",
          "type": "bytes16"
        },
        {
          "internalType": "bytes16",
          "name": "leaf",
          "type": "bytes16"
        }
      ],
      "name": "verify",
      "outputs": [
        {
          "internalType": "bool",
          "name": "valid",
          "type": "bool"
        },
        {
          "internalType": "uint256",
          "name": "index",
          "type": "uint256"
        }
      ],
      "stateMutability": "view",
      "type": "function"
    },
    {
      "stateMutability": "payable",
      "type": "receive"
    }
  ],
  "transactionHash": "0xd003e617f5ca1425567b976a1b9328743806958fa6f4150f4928d0ba7929e024",
  "args": [
    "0x111111111117dC0aa78b770fA6A738034120C302",
    "0x48a576b08542c49860e6cf70a1c8ce0d",
    10
  ],
  "numDeployments": 1,
  "solcInputHash": "7bb17a963892d3b557a67e35018902e3",
  "bytecode": "0x60e060405234801561001057600080fd5b50604051610fef380380610fef8339818101604052606081101561003357600080fd5b508051602082015160409092015190919061004d33610070565b6001600160a01b039092166080526001600160801b03191660a05260c0526100c0565b600080546001600160a01b038381166001600160a01b0319831681178455604051919092169283917f8be0079c531659141344cd1fd0a4f28419497f9722a3daafe3b4186f6b6457e09190a35050565b60805160a05160c051610eec610103600039600081816101fe01526109a601526000818160d3015261071b01526000818161046001526107d30152610eec6000f3fe6080604052600436106100b55760003560e01c80638da5cb5b11610069578063b33302c71161004e578063b33302c71461031d578063f2fde38b1461040e578063fc0c546a1461044e57600080fd5b80638da5cb5b1461028f5780639e34070f146102df57600080fd5b8063631c56ef1161009a578063631c56ef146101ec578063715018a61461023257806378e3214f1461024957600080fd5b80632eb4a7ab146100c15780633956851b1461012a57600080fd5b366100bc57005b600080fd5b3480156100cd57600080fd5b506100f57f000000000000000000000000000000000000000000000000000000000000000081565b604080517fffffffffffffffffffffffffffffffff000000000000000000000000000000009092168252519081900360200190f35b34801561013657600080fd5b506101d16004803603606081101561014d57600080fd5b81019060208101813564010000000081111561016857600080fd5b82018360208201111561017a57600080fd5b8035906020019184600183028401116401000000008311171561019c57600080fd5b91935091507fffffffffffffffffffffffffffffffff0000000000000000000000000000000081358116916020013516610482565b60408051921515835260208301919091528051918290030190f35b3480156101f857600080fd5b506102207f000000000000000000000000000000000000000000000000000000000000000081565b60408051918252519081900360200190f35b34801561023e57600080fd5b5061024761049e565b005b34801561025557600080fd5b506102476004803603604081101561026c57600080fd5b5073ffffffffffffffffffffffffffffffffffffffff8135169060200135610530565b34801561029b57600080fd5b5060005473ffffffffffffffffffffffffffffffffffffffff165b6040805173ffffffffffffffffffffffffffffffffffffffff9092168252519081900360200190f35b3480156102eb57600080fd5b506103096004803603602081101561030257600080fd5b50356105fb565b604080519115158252519081900360200190f35b34801561032957600080fd5b506102476004803603608081101561034057600080fd5b73ffffffffffffffffffffffffffffffffffffffff8235169160208101359181019060608101604082013564010000000081111561037d57600080fd5b82018360208201111561038f57600080fd5b803590602001918460018302840111640100000000831117156103b157600080fd5b9193909290916020810190356401000000008111156103cf57600080fd5b8201836020820111156103e157600080fd5b8035906020019184600183028401116401000000008311171561040357600080fd5b50909250905061063c565b34801561041a57600080fd5b506102476004803603602081101561043157600080fd5b503573ffffffffffffffffffffffffffffffffffffffff1661080f565b34801561045a57600080fd5b506102b67f000000000000000000000000000000000000000000000000000000000000000081565b6000806104918686868661093f565b9150915094509492505050565b60005473ffffffffffffffffffffffffffffffffffffffff163314610524576040517f08c379a000000000000000000000000000000000000000000000000000000000815260206004820181905260248201527f4f776e61626c653a2063616c6c6572206973206e6f7420746865206f776e657260448201526064015b60405180910390fd5b61052e60006109cc565b565b60005473ffffffffffffffffffffffffffffffffffffffff1633146105b1576040517f08c379a000000000000000000000000000000000000000000000000000000000815260206004820181905260248201527f4f776e61626c653a2063616c6c6572206973206e6f7420746865206f776e6572604482015260640161051b565b73ffffffffffffffffffffffffffffffffffffffff82166105da576105d63382610a41565b5050565b6105d673ffffffffffffffffffffffffffffffffffffffff83163383610ba0565b60008061060a61010084610e2a565b9050600061061a61010085610e3e565b60009283526001602081905260409093205492901b9182169091149392505050565b60006106b487604051602001808273ffffffffffffffffffffffffffffffffffffffff1660601b8152601401915050604051602081830303815290604052805190602001207f19457468657265756d205369676e6564204d6573736167653a0a3332000000006000908152601c91909152603c902090565b905060006106c3828585610c02565b905060008188604051602001808373ffffffffffffffffffffffffffffffffffffffff1660601b81526014018281526020019250505060405160208183030381529060405280519060200120905060008061074089897f00000000000000000000000000000000000000000000000000000000000000008661093f565b91509150816107b057604080517f08c379a000000000000000000000000000000000000000000000000000000000815260206004820152601160248201527f4d443a20496e76616c69642070726f6f66000000000000000000000000000000604482015290519081900360640190fd5b6107b981610cda565b6107fa73ffffffffffffffffffffffffffffffffffffffff7f0000000000000000000000000000000000000000000000000000000000000000168c8c610ba0565b610802610d80565b5050505050505050505050565b60005473ffffffffffffffffffffffffffffffffffffffff163314610890576040517f08c379a000000000000000000000000000000000000000000000000000000000815260206004820181905260248201527f4f776e61626c653a2063616c6c6572206973206e6f7420746865206f776e6572604482015260640161051b565b73ffffffffffffffffffffffffffffffffffffffff8116610933576040517f08c379a000000000000000000000000000000000000000000000000000000000815260206004820152602660248201527f4f776e61626c653a206e6577206f776e657220697320746865207a65726f206160448201527f6464726573730000000000000000000000000000000000000000000000000000606482015260840161051b565b61093c816109cc565b50565b6000808560018682015b80831015610993578235808710600181146109705781600052876010528584179550610979565b87600052816010525b5050602060002095508160011b9150601083019250610949565b5050509190921860801c159460109093047f0000000000000000000000000000000000000000000000000000000000000000031b925050565b6000805473ffffffffffffffffffffffffffffffffffffffff8381167fffffffffffffffffffffffff0000000000000000000000000000000000000000831681178455604051919092169283917f8be0079c531659141344cd1fd0a4f28419497f9722a3daafe3b4186f6b6457e09190a35050565b80471015610aab576040517f08c379a000000000000000000000000000000000000000000000000000000000815260206004820152601d60248201527f416464726573733a20696e73756666696369656e742062616c616e6365000000604482015260640161051b565b60008273ffffffffffffffffffffffffffffffffffffffff168260405160006040518083038185875af1925050503d8060008114610b05576040519150601f19603f3d011682016040523d82523d6000602084013e610b0a565b606091505b5050905080610b9b576040517f08c379a000000000000000000000000000000000000000000000000000000000815260206004820152603a60248201527f416464726573733a20756e61626c6520746f2073656e642076616c75652c207260448201527f6563697069656e74206d61792068617665207265766572746564000000000000606482015260840161051b565b505050565b610bcc837fa9059cbb000000000000000000000000000000000000000000000000000000008484610da6565b610b9b576040517ffb7f507900000000000000000000000000000000000000000000000000000000815260040160405180910390fd5b60006040518260418114610c215760408114610c3b5760009150610c7c565b604085013560001a60208301526040856040840137610c7c565b60208501358060ff1c601b01602084015260208660408501377f7fffffffffffffffffffffffffffffffffffffffffffffffffffffffffffffff1660608301525b508015610cd2577f7fffffffffffffffffffffffffffffff5d576e7357a4501ddfe92f46681b20a060608201511115610cb3575060005b8015610cd2578481526020600060808360015afa15610cd25760005191505b509392505050565b600881901c60008181526001602081905260409091205460ff841691821b8117808203610d6857604080517f08c379a000000000000000000000000000000000000000000000000000000000815260206004820152601860248201527f4d443a2044726f7020616c726561647920636c61696d65640000000000000000604482015290519081900360640190fd5b60009384526001602052604090932092909255505050565b47801561093c5761093c610d9f610d9961ea6048610e52565b83610de3565b3290610a41565b60006040518481528360048201528260248201526020600060448360008a5af19050600160005114601f3d11163d15178116915050949350505050565b6000818310610df25781610df4565b825b9392505050565b7f4e487b7100000000000000000000000000000000000000000000000000000000600052601260045260246000fd5b600082610e3957610e39610dfb565b500490565b600082610e4d57610e4d610dfb565b500690565b6000817fffffffffffffffffffffffffffffffffffffffffffffffffffffffffffffffff0483118215151615610eb1577f4e487b7100000000000000000000000000000000000000000000000000000000600052601160045260246000fd5b50029056fea26469706673582212201622063a2db0b5965689a54717d5b053f56bd4d6b99c303391d819402cee579c64736f6c634300080f0033",
  "devdoc": {
    "kind": "dev",
    "methods": {
      "owner()": {
        "details": "Returns the address of the current owner."
      },
      "renounceOwnership()": {
        "details": "Leaves the contract without owner. It will not be possible to call `onlyOwner` functions anymore. Can only be called by the current owner. NOTE: Renouncing ownership will leave the contract without an owner, thereby removing any functionality that is only available to the owner."
      },
      "transferOwnership(address)": {
        "details": "Transfers ownership of the contract to a new account (`newOwner`). Can only be called by the current owner."
      }
    },
    "version": 1
  },
  "userdoc": {
    "kind": "user",
    "methods": {},
    "version": 1
  },
  "storageLayout": {
    "storage": [
      {
        "astId": 670,
        "contract": "contracts/SignatureMerkleDrop128.sol:SignatureMerkleDrop128",
        "label": "_owner",
        "offset": 0,
        "slot": "0",
        "type": "t_address"
      },
      {
        "astId": 2241,
        "contract": "contracts/SignatureMerkleDrop128.sol:SignatureMerkleDrop128",
        "label": "_claimedBitMap",
        "offset": 0,
        "slot": "1",
        "type": "t_mapping(t_uint256,t_uint256)"
      }
    ],
    "types": {
      "t_address": {
        "encoding": "inplace",
        "label": "address",
        "numberOfBytes": "20"
      },
      "t_mapping(t_uint256,t_uint256)": {
        "encoding": "mapping",
        "key": "t_uint256",
        "label": "mapping(uint256 => uint256)",
        "numberOfBytes": "32",
        "value": "t_uint256"
      },
      "t_uint256": {
        "encoding": "inplace",
        "label": "uint256",
        "numberOfBytes": "32"
      }
    }
  }
}